:100000000C942A000C9406010C9447000C944700B1
:100010000C9447000C9447000C9447000C94470044
:100020000C9447000C9447000C9447000C94470034
:100030000C9447000C9447000C9447000C94470024
:100040000C9447000C9447000C9447000C94470014
:100050000C94470011241FBECFE5D8E0DEBFCDBF12
:1000600010E0A0E6B0E0EAEDF4E002C005900D92E9
:10007000AE39B107D9F720E0AEE9B0E001C01D927A
:10008000AD3AB207E1F70E9420020C946B020C9487
:10009000000095B39F70282F207F922B95BBA898C6
:1000A000A99A32E03A95F1F700C0A998EFE8F1E09B
:1000B0003197F1F700C0000025B32F70F0E18F9F5A
:1000C000C0011124822B85BBA99A32E03A95F1F741
:1000D00000C0A9988FE99FE00197F1F700C00000E8
:1000E000089595B39F70282F207F922B95BBA89AD7
:1000F000A99A32E03A95F1F700C0A998EFE8F1E04B
:100100003197F1F700C0000025B32F70F0E18F9F09
:10011000C0011124822B85BBA99A32E03A95F1F7F0
:1001200000C0A9988FE99FE00197F1F700C0000097
:1001300008958FEF84BB8FE39CE90197F1F700C02E
:10014000000082E00E94490083E30E94490082E3AC
:100150000E94490088E20E9449008CE00E94490008
:1001600086E00E94490081E00E944900089581E0F4
:100170000E9449008FE99FE00197F1F700C000005D
:1001800080E80E9449000895CF93DF93EC018881B5
:10019000882331F021960E94710089918111FBCF53
:1001A000DF91CF910895CF93DF93EA01811108C0C9
:1001B000603178F4862F8F7080680E94490009C0F2
:1001C000813039F4603128F4862F8F70806C0E9462
:1001D0004900CE010E94C400DF91CF910895803183
:1001E00078F4E82FE695E695F0E08370EE0FFF1FB8
:1001F000EE0FFF1FE05AFF4FE80FF11D80810895B9
:1002000080E00895FC011082118208951F920F92E0
:100210000FB60F9211242F933F934F935F936F93D9
:100220007F938F939F93AF93BF93EF93FF9386B387
:100230008F700E94EF008B3289F480919E00809530
:1002400080939E000E94B7002FE788E391E0215041
:1002500080409040E1F700C0000041C0833479F451
:100260008091A1009091A200809590959093A2001A
:100270008093A100109271001092700030C08A32F9
:1002800061F4DF9A2FEF80E792E0215080409040A8
:10029000E1F700C00000DF9822C02091700030918B
:1002A000710033233CF42F5F3F4F30937100209354
:1002B000700015C02230310590F4F901ED55FF4F63
:1002C00080832F5F3F4F2230310529F0309371003A
:1002D0002093700004C01092710010927000FF9182
:1002E000EF91BF91AF919F918F917F916F915F91AE
:1002F0004F913F912F910F900FBE0F901F90189527
:1003000081B381BB80E48BBF83E085BF789408957F
:100310000F931F93CF93DF93009721F0019709F478
:100320004FC089C042E750E060E080E00E94D30007
:100330004DE750E060E081E00E94D30083EA90E066
:100340000E94C40042E850E06BE081E00E94D300CC
:100350008091A1009091A200892B09F46CC083EADE
:1003600090E00E944502EC018C010F5F1F4F10923C
:10037000A00010929F0080E090E0892B19F48C2F50
:100380000E94400280919F009091A000892B19F457
:10039000802F0E94400280919F009091A0000196C2
:1003A0009093A00080939F008230910534F31092C7
:1003B000A2001092A10083EA90E00E9402013BC0DB
:1003C00046E850E060E080E00E94D30043E950E05E
:1003D00060E081E00E94D30083EA90E00E94C400C4
:1003E0004AE950E06BE081E00E94D3008091A100D7
:1003F0009091A200892BF9F083EA90E00E944502D7
:10040000C82F1092A00010929F008C2F0E944002D3
:1004100080919F009091A00001969093A0008093FE
:100420009F00029794F31092A2001092A10083EA19
:1004300090E00E940201DF91CF911F910F910895EA
:100440000E9499000E9437020E948001C49880E8AF
:100450008ABB80919E00882329F080E090E00E9472
:100460008801F7CF81E090E00E948801F2CF87B346
:10047000806B87BBBE98C49A81E58DB9709808954A
:100480008FB9779BFECF8FB10895FC0188279927FC
:10049000E89421912032E9F3293010F02E30C8F38E
:1004A0002B3241F02D3239F4689404C00E9463026B
:1004B000820F911D219120532A30C0F31EF4909594
:1004C00081959F4F08957AE0979F902D879F802D6B
:0A04D000910D11240895F894FFCF58
:1004DA003738392F3435362A3132332D43303D2BD4
:1004EA00FFFF4D6F64653A4D2D506F7300506F7367
:1004FA003A00524556004D6F64653A4D2D5370656A
:0E050A0065640053706565643A0052504D0000
:00000001FF
